{
  "_format": "hh-sol-artifact-1",
  "contractName": "MisterBob",
  "sourceName": "contracts/MisterBob.sol",
  "abi": [
    {
      "inputs": [
        {
          "internalType": "string",
          "name": "uri",
          "type": "string"
        },
        {
          "internalType": "bytes32",
          "name": "merkleroot",
          "type": "bytes32"
        },
        {
          "internalType": "address",
          "name": "_proxyRegistryAddress",
          "type": "address"
        }
      ],
      "stateMutability": "nonpayable",
      "type": "constructor"
    },
    {
      "anonymous": false,
      "inputs": [
        {
          "indexed": true,
          "internalType": "address",
          "name": "owner",
          "type": "address"
        },
        {
          "indexed": true,
          "internalType": "address",
          "name": "approved",
          "type": "address"
        },
        {
          "indexed": true,
          "internalType": "uint256",
          "name": "tokenId",
          "type": "uint256"
        }
      ],
      "name": "Approval",
      "type": "event"
    },
    {
      "anonymous": false,
      "inputs": [
        {
          "indexed": true,
          "internalType": "address",
          "name": "owner",
          "type": "address"
        },
        {
          "indexed": true,
          "internalType": "address",
          "name": "operator",
          "type": "address"
        },
        {
          "indexed": false,
          "internalType": "bool",
          "name": "approved",
          "type": "bool"
        }
      ],
      "name": "ApprovalForAll",
      "type": "event"
    },
    {
      "anonymous": false,
      "inputs": [
        {
          "indexed": true,
          "internalType": "contract IERC20",
          "name": "token",
          "type": "address"
        },
        {
          "indexed": false,
          "internalType": "address",
          "name": "to",
          "type": "address"
        },
        {
          "indexed": false,
          "internalType": "uint256",
          "name": "amount",
          "type": "uint256"
        }
      ],
      "name": "ERC20PaymentReleased",
      "type": "event"
    },
    {
      "anonymous": false,
      "inputs": [
        {
          "indexed": true,
          "internalType": "address",
          "name": "previousOwner",
          "type": "address"
        },
        {
          "indexed": true,
          "internalType": "address",
          "name": "newOwner",
          "type": "address"
        }
      ],
      "name": "OwnershipTransferred",
      "type": "event"
    },
    {
      "anonymous": false,
      "inputs": [
        {
          "indexed": false,
          "internalType": "address",
          "name": "account",
          "type": "address"
        },
        {
          "indexed": false,
          "internalType": "uint256",
          "name": "shares",
          "type": "uint256"
        }
      ],
      "name": "PayeeAdded",
      "type": "event"
    },
    {
      "anonymous": false,
      "inputs": [
        {
          "indexed": false,
          "internalType": "address",
          "name": "from",
          "type": "address"
        },
        {
          "indexed": false,
          "internalType": "uint256",
          "name": "amount",
          "type": "uint256"
        }
      ],
      "name": "PaymentReceived",
      "type": "event"
    },
    {
      "anonymous": false,
      "inputs": [
        {
          "indexed": false,
          "internalType": "address",
          "name": "to",
          "type": "address"
        },
        {
          "indexed": false,
          "internalType": "uint256",
          "name": "amount",
          "type": "uint256"
        }
      ],
      "name": "PaymentReleased",
      "type": "event"
    },
    {
      "anonymous": false,
      "inputs": [
        {
          "indexed": true,
          "internalType": "address",
          "name": "from",
          "type": "address"
        },
        {
          "indexed": true,
          "internalType": "address",
          "name": "to",
          "type": "address"
        },
        {
          "indexed": true,
          "internalType": "uint256",
          "name": "tokenId",
          "type": "uint256"
        }
      ],
      "name": "Transfer",
      "type": "event"
    },
    {
      "inputs": [
        {
          "internalType": "address",
          "name": "",
          "type": "address"
        }
      ],
      "name": "_presaleClaimed",
      "outputs": [
        {
          "internalType": "uint256",
          "name": "",
          "type": "uint256"
        }
      ],
      "stateMutability": "view",
      "type": "function"
    },
    {
      "inputs": [
        {
          "internalType": "address",
          "name": "to",
          "type": "address"
        },
        {
          "internalType": "uint256",
          "name": "tokenId",
          "type": "uint256"
        }
      ],
      "name": "approve",
      "outputs": [],
      "stateMutability": "nonpayable",
      "type": "function"
    },
    {
      "inputs": [
        {
          "internalType": "address",
          "name": "owner",
          "type": "address"
        }
      ],
      "name": "balanceOf",
      "outputs": [
        {
          "internalType": "uint256",
          "name": "",
          "type": "uint256"
        }
      ],
      "stateMutability": "view",
      "type": "function"
    },
    {
      "inputs": [],
      "name": "baseExtension",
      "outputs": [
        {
          "internalType": "string",
          "name": "",
          "type": "string"
        }
      ],
      "stateMutability": "view",
      "type": "function"
    },
    {
      "inputs": [],
      "name": "baseURI",
      "outputs": [
        {
          "internalType": "string",
          "name": "",
          "type": "string"
        }
      ],
      "stateMutability": "view",
      "type": "function"
    },
    {
      "inputs": [
        {
          "internalType": "uint256",
          "name": "tokenId",
          "type": "uint256"
        }
      ],
      "name": "getApproved",
      "outputs": [
        {
          "internalType": "address",
          "name": "",
          "type": "address"
        }
      ],
      "stateMutability": "view",
      "type": "function"
    },
    {
      "inputs": [
        {
          "internalType": "address",
          "name": "owner",
          "type": "address"
        },
        {
          "internalType": "address",
          "name": "operator",
          "type": "address"
        }
      ],
      "name": "isApprovedForAll",
      "outputs": [
        {
          "internalType": "bool",
          "name": "",
          "type": "bool"
        }
      ],
      "stateMutability": "view",
      "type": "function"
    },
    {
      "inputs": [],
      "name": "maxSupply",
      "outputs": [
        {
          "internalType": "uint256",
          "name": "",
          "type": "uint256"
        }
      ],
      "stateMutability": "view",
      "type": "function"
    },
    {
      "inputs": [],
      "name": "name",
      "outputs": [
        {
          "internalType": "string",
          "name": "",
          "type": "string"
        }
      ],
      "stateMutability": "view",
      "type": "function"
    },
    {
      "inputs": [],
      "name": "notRevealedUri",
      "outputs": [
        {
          "internalType": "string",
          "name": "",
          "type": "string"
        }
      ],
      "stateMutability": "view",
      "type": "function"
    },
    {
      "inputs": [],
      "name": "owner",
      "outputs": [
        {
          "internalType": "address",
          "name": "",
          "type": "address"
        }
      ],
      "stateMutability": "view",
      "type": "function"
    },
    {
      "inputs": [
        {
          "internalType": "uint256",
          "name": "tokenId",
          "type": "uint256"
        }
      ],
      "name": "ownerOf",
      "outputs": [
        {
          "internalType": "address",
          "name": "",
          "type": "address"
        }
      ],
      "stateMutability": "view",
      "type": "function"
    },
    {
      "inputs": [],
      "name": "paused",
      "outputs": [
        {
          "internalType": "bool",
          "name": "",
          "type": "bool"
        }
      ],
      "stateMutability": "view",
      "type": "function"
    },
    {
      "inputs": [
        {
          "internalType": "uint256",
          "name": "index",
          "type": "uint256"
        }
      ],
      "name": "payee",
      "outputs": [
        {
          "internalType": "address",
          "name": "",
          "type": "address"
        }
      ],
      "stateMutability": "view",
      "type": "function"
    },
    {
      "inputs": [],
      "name": "presaleM",
      "outputs": [
        {
          "internalType": "bool",
          "name": "",
          "type": "bool"
        }
      ],
      "stateMutability": "view",
      "type": "function"
    },
    {
      "inputs": [
        {
          "internalType": "address",
          "name": "account",
          "type": "address"
        },
        {
          "internalType": "uint256",
          "name": "_amount",
          "type": "uint256"
        },
        {
          "internalType": "bytes32[]",
          "name": "_proof",
          "type": "bytes32[]"
        }
      ],
      "name": "presaleMint",
      "outputs": [],
      "stateMutability": "payable",
      "type": "function"
    },
    {
      "inputs": [],
      "name": "publicM",
      "outputs": [
        {
          "internalType": "bool",
          "name": "",
          "type": "bool"
        }
      ],
      "stateMutability": "view",
      "type": "function"
    },
    {
      "inputs": [
        {
          "internalType": "uint256",
          "name": "_amount",
          "type": "uint256"
        }
      ],
      "name": "publicSaleMint",
      "outputs": [],
      "stateMutability": "payable",
      "type": "function"
    },
    {
      "inputs": [
        {
          "internalType": "address",
          "name": "account",
          "type": "address"
        }
      ],
      "name": "releasable",
      "outputs": [
        {
          "internalType": "uint256",
          "name": "",
          "type": "uint256"
        }
      ],
      "stateMutability": "view",
      "type": "function"
    },
    {
      "inputs": [
        {
          "internalType": "contract IERC20",
          "name": "token",
          "type": "address"
        },
        {
          "internalType": "address",
          "name": "account",
          "type": "address"
        }
      ],
      "name": "releasable",
      "outputs": [
        {
          "internalType": "uint256",
          "name": "",
          "type": "uint256"
        }
      ],
      "stateMutability": "view",
      "type": "function"
    },
    {
      "inputs": [
        {
          "internalType": "address payable",
          "name": "account",
          "type": "address"
        }
      ],
      "name": "release",
      "outputs": [],
      "stateMutability": "nonpayable",
      "type": "function"
    },
    {
      "inputs": [
        {
          "internalType": "contract IERC20",
          "name": "token",
          "type": "address"
        },
        {
          "internalType": "address",
          "name": "account",
          "type": "address"
        }
      ],
      "name": "release",
      "outputs": [],
      "stateMutability": "nonpayable",
      "type": "function"
    },
    {
      "inputs": [
        {
          "internalType": "contract IERC20",
          "name": "token",
          "type": "address"
        },
        {
          "internalType": "address",
          "name": "account",
          "type": "address"
        }
      ],
      "name": "released",
      "outputs": [
        {
          "internalType": "uint256",
          "name": "",
          "type": "uint256"
        }
      ],
      "stateMutability": "view",
      "type": "function"
    },
    {
      "inputs": [
        {
          "internalType": "address",
          "name": "account",
          "type": "address"
        }
      ],
      "name": "released",
      "outputs": [
        {
          "internalType": "uint256",
          "name": "",
          "type": "uint256"
        }
      ],
      "stateMutability": "view",
      "type": "function"
    },
    {
      "inputs": [],
      "name": "renounceOwnership",
      "outputs": [],
      "stateMutability": "nonpayable",
      "type": "function"
    },
    {
      "inputs": [],
      "name": "reveal",
      "outputs": [],
      "stateMutability": "nonpayable",
      "type": "function"
    },
    {
      "inputs": [],
      "name": "revealed",
      "outputs": [
        {
          "internalType": "bool",
          "name": "",
          "type": "bool"
        }
      ],
      "stateMutability": "view",
      "type": "function"
    },
    {
      "inputs": [],
      "name": "root",
      "outputs": [
        {
          "internalType": "bytes32",
          "name": "",
          "type": "bytes32"
        }
      ],
      "stateMutability": "view",
      "type": "function"
    },
    {
      "inputs": [
        {
          "internalType": "address",
          "name": "from",
          "type": "address"
        },
        {
          "internalType": "address",
          "name": "to",
          "type": "address"
        },
        {
          "internalType": "uint256",
          "name": "tokenId",
          "type": "uint256"
        }
      ],
      "name": "safeTransferFrom",
      "outputs": [],
      "stateMutability": "nonpayable",
      "type": "function"
    },
    {
      "inputs": [
        {
          "internalType": "address",
          "name": "from",
          "type": "address"
        },
        {
          "internalType": "address",
          "name": "to",
          "type": "address"
        },
        {
          "internalType": "uint256",
          "name": "tokenId",
          "type": "uint256"
        },
        {
          "internalType": "bytes",
          "name": "data",
          "type": "bytes"
        }
      ],
      "name": "safeTransferFrom",
      "outputs": [],
      "stateMutability": "nonpayable",
      "type": "function"
    },
    {
      "inputs": [
        {
          "internalType": "address",
          "name": "operator",
          "type": "address"
        },
        {
          "internalType": "bool",
          "name": "approved",
          "type": "bool"
        }
      ],
      "name": "setApprovalForAll",
      "outputs": [],
      "stateMutability": "nonpayable",
      "type": "function"
    },
    {
      "inputs": [
        {
          "internalType": "string",
          "name": "_newBaseExtension",
          "type": "string"
        }
      ],
      "name": "setBaseExtension",
      "outputs": [],
      "stateMutability": "nonpayable",
      "type": "function"
    },
    {
      "inputs": [
        {
          "internalType": "string",
          "name": "_tokenBaseURI",
          "type": "string"
        }
      ],
      "name": "setBaseURI",
      "outputs": [],
      "stateMutability": "nonpayable",
      "type": "function"
    },
    {
      "inputs": [
        {
          "internalType": "bytes32",
          "name": "merkleroot",
          "type": "bytes32"
        }
      ],
      "name": "setMerkleRoot",
      "outputs": [],
      "stateMutability": "nonpayable",
      "type": "function"
    },
    {
      "inputs": [
        {
          "internalType": "string",
          "name": "_notRevealedURI",
          "type": "string"
        }
      ],
      "name": "setNotRevealedURI",
      "outputs": [],
      "stateMutability": "nonpayable",
      "type": "function"
    },
    {
      "inputs": [
        {
          "internalType": "address",
          "name": "account",
          "type": "address"
        }
      ],
      "name": "shares",
      "outputs": [
        {
          "internalType": "uint256",
          "name": "",
          "type": "uint256"
        }
      ],
      "stateMutability": "view",
      "type": "function"
    },
    {
      "inputs": [
        {
          "internalType": "bytes4",
          "name": "interfaceId",
          "type": "bytes4"
        }
      ],
      "name": "supportsInterface",
      "outputs": [
        {
          "internalType": "bool",
          "name": "",
          "type": "bool"
        }
      ],
      "stateMutability": "view",
      "type": "function"
    },
    {
      "inputs": [],
      "name": "symbol",
      "outputs": [
        {
          "internalType": "string",
          "name": "",
          "type": "string"
        }
      ],
      "stateMutability": "view",
      "type": "function"
    },
    {
      "inputs": [],
      "name": "togglePause",
      "outputs": [],
      "stateMutability": "nonpayable",
      "type": "function"
    },
    {
      "inputs": [],
      "name": "togglePresale",
      "outputs": [],
      "stateMutability": "nonpayable",
      "type": "function"
    },
    {
      "inputs": [],
      "name": "togglePublicSale",
      "outputs": [],
      "stateMutability": "nonpayable",
      "type": "function"
    },
    {
      "inputs": [
        {
          "internalType": "uint256",
          "name": "tokenId",
          "type": "uint256"
        }
      ],
      "name": "tokenURI",
      "outputs": [
        {
          "internalType": "string",
          "name": "",
          "type": "string"
        }
      ],
      "stateMutability": "view",
      "type": "function"
    },
    {
      "inputs": [
        {
          "internalType": "contract IERC20",
          "name": "token",
          "type": "address"
        }
      ],
      "name": "totalReleased",
      "outputs": [
        {
          "internalType": "uint256",
          "name": "",
          "type": "uint256"
        }
      ],
      "stateMutability": "view",
      "type": "function"
    },
    {
      "inputs": [],
      "name": "totalReleased",
      "outputs": [
        {
          "internalType": "uint256",
          "name": "",
          "type": "uint256"
        }
      ],
      "stateMutability": "view",
      "type": "function"
    },
    {
      "inputs": [],
      "name": "totalShares",
      "outputs": [
        {
          "internalType": "uint256",
          "name": "",
          "type": "uint256"
        }
      ],
      "stateMutability": "view",
      "type": "function"
    },
    {
      "inputs": [],
      "name": "totalSupply",
      "outputs": [
        {
          "internalType": "uint256",
          "name": "",
          "type": "uint256"
        }
      ],
      "stateMutability": "view",
      "type": "function"
    },
    {
      "inputs": [
        {
          "internalType": "address",
          "name": "from",
          "type": "address"
        },
        {
          "internalType": "address",
          "name": "to",
          "type": "address"
        },
        {
          "internalType": "uint256",
          "name": "tokenId",
          "type": "uint256"
        }
      ],
      "name": "transferFrom",
      "outputs": [],
      "stateMutability": "nonpayable",
      "type": "function"
    },
    {
      "inputs": [
        {
          "internalType": "address",
          "name": "newOwner",
          "type": "address"
        }
      ],
      "name": "transferOwnership",
      "outputs": [],
      "stateMutability": "nonpayable",
      "type": "function"
    },
    {
      "stateMutability": "payable",
      "type": "receive"
    }
  ],
  "bytecode": "0x60316011556101006040526041608081815290620038cf60a03980516200002f9160139160209091019062000681565b5060408051808201909152600580825264173539b7b760d91b60209092019182526200005e9160149162000681565b506015805463ffffffff191690556003601655662386f26fc1000060185560408051808201909152605a8152600a6020820152620000a190601a90600262000710565b506040805180820190915273e22a5a42c383b699479daed0ae1b6e34c0ac717a815273cfb04e8f353a9e57f62dd63176858dcb33af5cad6020820152620000ed90601b90600262000753565b50348015620000fb57600080fd5b5060405162003910380380620039108339810160408190526200011e91620007f5565b601b8054806020026020016040519081016040528092919081815260200182805480156200017657602002820191906000526020600020905b81546001600160a01b0316815260019091019060200180831162000157575b5050505050601a805480602002602001604051908101604052809291908181526020018280548015620001c957602002820191906000526020600020905b815481526020019060010190808311620001b4575b5050604080518082018252600981526826b4b9ba32b92137b160b91b6020808301918252835180850190945260038452622127a160e91b9084015281519195509193506200021c92506000919062000681565b5080516200023290600190602084019062000681565b5050506200024f62000249620003bc60201b60201c565b620003c0565b60016007558051825114620002c65760405162461bcd60e51b815260206004820152603260248201527f5061796d656e7453706c69747465723a2070617965657320616e6420736861726044820152710cae640d8cadccee8d040dad2e6dac2e8c6d60731b60648201526084015b60405180910390fd5b6000825111620003195760405162461bcd60e51b815260206004820152601a60248201527f5061796d656e7453706c69747465723a206e6f207061796565730000000000006044820152606401620002bd565b60005b82518110156200038557620003708382815181106200033f576200033f620008f0565b60200260200101518383815181106200035c576200035c620008f0565b60200260200101516200041260201b60201c565b806200037c816200091c565b9150506200031c565b505050600f829055601080546001600160a01b0319166001600160a01b038316179055620003b38362000600565b50505062000992565b3390565b600680546001600160a01b038381166001600160a01b0319831681179093556040519116919082907f8be0079c531659141344cd1fd0a4f28419497f9722a3daafe3b4186f6b6457e090600090a35050565b6001600160a01b0382166200047f5760405162461bcd60e51b815260206004820152602c60248201527f5061796d656e7453706c69747465723a206163636f756e74206973207468652060448201526b7a65726f206164647265737360a01b6064820152608401620002bd565b60008111620004d15760405162461bcd60e51b815260206004820152601d60248201527f5061796d656e7453706c69747465723a207368617265732061726520300000006044820152606401620002bd565b6001600160a01b0382166000908152600a6020526040902054156200054d5760405162461bcd60e51b815260206004820152602b60248201527f5061796d656e7453706c69747465723a206163636f756e7420616c726561647960448201526a206861732073686172657360a81b6064820152608401620002bd565b600c8054600181019091557fdf6966c971051c3d54ec59162606531493a51404a002842f56009d7e5cf4a8c70180546001600160a01b0319166001600160a01b0384169081179091556000908152600a60205260409020819055600854620005b79082906200093a565b600855604080516001600160a01b0384168152602081018390527f40c340f65e17194d14ddddb073d3c9f888e3cb52b5aae0c6c7706b4fbc905fac910160405180910390a15050565b6200060a62000623565b80516200061f90601290602084019062000681565b5050565b6006546001600160a01b031633146200067f5760405162461bcd60e51b815260206004820181905260248201527f4f776e61626c653a2063616c6c6572206973206e6f7420746865206f776e65726044820152606401620002bd565b565b8280546200068f9062000955565b90600052602060002090601f016020900481019282620006b35760008555620006fe565b82601f10620006ce57805160ff1916838001178555620006fe565b82800160010185558215620006fe579182015b82811115620006fe578251825591602001919060010190620006e1565b506200070c929150620007ab565b5090565b828054828255906000526020600020908101928215620006fe579160200282015b82811115620006fe578251829060ff1690559160200191906001019062000731565b828054828255906000526020600020908101928215620006fe579160200282015b82811115620006fe57825182546001600160a01b0319166001600160a01b0390911617825560209092019160019091019062000774565b5b808211156200070c5760008155600101620007ac565b634e487b7160e01b600052604160045260246000fd5b80516001600160a01b0381168114620007f057600080fd5b919050565b6000806000606084860312156200080b57600080fd5b83516001600160401b03808211156200082357600080fd5b818601915086601f8301126200083857600080fd5b8151818111156200084d576200084d620007c2565b604051601f8201601f19908116603f01168101908382118183101715620008785762000878620007c2565b816040528281526020935089848487010111156200089557600080fd5b600091505b82821015620008b957848201840151818301850152908301906200089a565b82821115620008cb5760008484830101525b8097505050508086015193505050620008e760408501620007d8565b90509250925092565b634e487b7160e01b600052603260045260246000fd5b634e487b7160e01b600052601160045260246000fd5b600060001982141562000933576200093362000906565b5060010190565b6000821982111562000950576200095062000906565b500190565b600181811c908216806200096a57607f821691505b602082108114156200098c57634e487b7160e01b600052602260045260246000fd5b50919050565b612f2d80620009a26000396000f3fe6080604052600436106102975760003560e01c80638da5cb5b1161015a578063c6682862116100c1578063e222c7f91161007a578063e222c7f91461083f578063e33b7de314610854578063e985e9c514610869578063ebf0c71714610889578063f2c4ce1e1461089f578063f2fde38b146108bf57600080fd5b8063c668286214610768578063c87b56dd1461077d578063ce7c2ac21461079d578063d5abeb01146107d3578063d79779b2146107e9578063da3ef23f1461081f57600080fd5b8063a45063c011610113578063a45063c0146106ca578063a475b5dd146106eb578063b3ab66b014610700578063b88d4fde14610713578063c45ac05014610733578063c4ae31681461075357600080fd5b80638da5cb5b1461060e578063954dc3e31461062c57806395d89b411461063f5780639852595c14610654578063a22cb4651461068a578063a3f8eace146106aa57600080fd5b806342842e0e116101fe5780636c0360eb116101b75780636c0360eb1461055757806370a082311461056c578063715018a61461058c5780637cb64759146105a15780638b83209b146105c15780638cc4de19146105e157600080fd5b806342842e0e1461049e57806348b75044146104be57806351830227146104de57806355f804b3146104fd5780635c975abb1461051d5780636352211e1461053757600080fd5b806318160ddd1161025057806318160ddd146103cb57806319165587146103ee57806323b872dd1461040e578063343937431461042e5780633a98ef3914610443578063406072a91461045857600080fd5b806301ffc9a7146102e557806306fdde031461031a578063081812fc1461033c578063081c8c4414610374578063095ea7b3146103895780631798d58b146103ab57600080fd5b366102e0577f6ef95f06320e7a25a04a175ca677b7052bdd97131872c2192525a629f51be77033604080516001600160a01b0390921682523460208301520160405180910390a1005b600080fd5b3480156102f157600080fd5b50610305610300366004612769565b6108df565b60405190151581526020015b60405180910390f35b34801561032657600080fd5b5061032f610931565b60405161031191906127de565b34801561034857600080fd5b5061035c6103573660046127f1565b6109c3565b6040516001600160a01b039091168152602001610311565b34801561038057600080fd5b5061032f6109ea565b34801561039557600080fd5b506103a96103a436600461281f565b610a78565b005b3480156103b757600080fd5b506015546103059062010000900460ff1681565b3480156103d757600080fd5b506103e0610b93565b604051908152602001610311565b3480156103fa57600080fd5b506103a961040936600461284b565b610ba3565b34801561041a57600080fd5b506103a9610429366004612868565b610c99565b34801561043a57600080fd5b506103a9610cca565b34801561044f57600080fd5b506008546103e0565b34801561046457600080fd5b506103e06104733660046128a9565b6001600160a01b039182166000908152600e6020908152604080832093909416825291909152205490565b3480156104aa57600080fd5b506103a96104b9366004612868565b610cf1565b3480156104ca57600080fd5b506103a96104d93660046128a9565b610d0c565b3480156104ea57600080fd5b5060155461030590610100900460ff1681565b34801561050957600080fd5b506103a961051836600461296e565b610e2c565b34801561052957600080fd5b506015546103059060ff1681565b34801561054357600080fd5b5061035c6105523660046127f1565b610e4b565b34801561056357600080fd5b5061032f610eab565b34801561057857600080fd5b506103e061058736600461284b565b610eb8565b34801561059857600080fd5b506103a9610f3e565b3480156105ad57600080fd5b506103a96105bc3660046127f1565b610f52565b3480156105cd57600080fd5b5061035c6105dc3660046127f1565b610f5f565b3480156105ed57600080fd5b506103e06105fc36600461284b565b60176020526000908152604090205481565b34801561061a57600080fd5b506006546001600160a01b031661035c565b6103a961063a3660046129b7565b610f8f565b34801561064b57600080fd5b5061032f6112ea565b34801561066057600080fd5b506103e061066f36600461284b565b6001600160a01b03166000908152600b602052604090205490565b34801561069657600080fd5b506103a96106a5366004612a51565b6112f9565b3480156106b657600080fd5b506103e06106c536600461284b565b611304565b3480156106d657600080fd5b50601554610305906301000000900460ff1681565b3480156106f757600080fd5b506103a961134c565b6103a961070e3660046127f1565b611365565b34801561071f57600080fd5b506103a961072e366004612a7f565b611537565b34801561073f57600080fd5b506103e061074e3660046128a9565b61156f565b34801561075f57600080fd5b506103a9611649565b34801561077457600080fd5b5061032f611665565b34801561078957600080fd5b5061032f6107983660046127f1565b611672565b3480156107a957600080fd5b506103e06107b836600461284b565b6001600160a01b03166000908152600a602052604090205490565b3480156107df57600080fd5b506103e060115481565b3480156107f557600080fd5b506103e061080436600461284b565b6001600160a01b03166000908152600d602052604090205490565b34801561082b57600080fd5b506103a961083a36600461296e565b6117f0565b34801561084b57600080fd5b506103a961180b565b34801561086057600080fd5b506009546103e0565b34801561087557600080fd5b506103056108843660046128a9565b611834565b34801561089557600080fd5b506103e0600f5481565b3480156108ab57600080fd5b506103a96108ba36600461296e565b611900565b3480156108cb57600080fd5b506103a96108da36600461284b565b61191b565b60006001600160e01b031982166380ac58cd60e01b148061091057506001600160e01b03198216635b5e139f60e01b145b8061092b57506301ffc9a760e01b6001600160e01b03198316145b92915050565b60606000805461094090612aff565b80601f016020809104026020016040519081016040528092919081815260200182805461096c90612aff565b80156109b95780601f1061098e576101008083540402835291602001916109b9565b820191906000526020600020905b81548152906001019060200180831161099c57829003601f168201915b5050505050905090565b60006109ce82611994565b506000908152600460205260409020546001600160a01b031690565b601380546109f790612aff565b80601f0160208091040260200160405190810160405280929190818152602001828054610a2390612aff565b8015610a705780601f10610a4557610100808354040283529160200191610a70565b820191906000526020600020905b815481529060010190602001808311610a5357829003601f168201915b505050505081565b6000610a8382610e4b565b9050806001600160a01b0316836001600160a01b03161415610af65760405162461bcd60e51b815260206004820152602160248201527f4552433732313a20617070726f76616c20746f2063757272656e74206f776e656044820152603960f91b60648201526084015b60405180910390fd5b336001600160a01b0382161480610b125750610b128133611834565b610b845760405162461bcd60e51b815260206004820152603e60248201527f4552433732313a20617070726f76652063616c6c6572206973206e6f7420746f60448201527f6b656e206f776e6572206e6f7220617070726f76656420666f7220616c6c00006064820152608401610aed565b610b8e83836119f3565b505050565b6000610b9e60195490565b905090565b6001600160a01b0381166000908152600a6020526040902054610bd85760405162461bcd60e51b8152600401610aed90612b3a565b6000610be382611304565b905080610c025760405162461bcd60e51b8152600401610aed90612b80565b6001600160a01b0382166000908152600b602052604081208054839290610c2a908490612be1565b925050819055508060096000828254610c439190612be1565b90915550610c5390508282611a61565b604080516001600160a01b0384168152602081018390527fdf20fd1e76bc69d672e4814fafb2c449bba3a5369d8359adf9e05e6fde87b056910160405180910390a15050565b610ca33382611b7a565b610cbf5760405162461bcd60e51b8152600401610aed90612bf9565b610b8e838383611bd8565b610cd2611d74565b6015805462ff0000198116620100009182900460ff1615909102179055565b610b8e83838360405180602001604052806000815250611537565b6001600160a01b0381166000908152600a6020526040902054610d415760405162461bcd60e51b8152600401610aed90612b3a565b6000610d4d838361156f565b905080610d6c5760405162461bcd60e51b8152600401610aed90612b80565b6001600160a01b038084166000908152600e6020908152604080832093861683529290529081208054839290610da3908490612be1565b90915550506001600160a01b0383166000908152600d602052604081208054839290610dd0908490612be1565b90915550610de19050838383611dce565b604080516001600160a01b038481168252602082018490528516917f3be5b7a71e84ed12875d241991c70855ac5817d847039e17a9d895c1ceb0f18a910160405180910390a2505050565b610e34611d74565b8051610e479060129060208401906126ba565b5050565b6000818152600260205260408120546001600160a01b03168061092b5760405162461bcd60e51b8152602060048201526018602482015277115490cdcc8c4e881a5b9d985b1a59081d1bdad95b88125160421b6044820152606401610aed565b601280546109f790612aff565b60006001600160a01b038216610f225760405162461bcd60e51b815260206004820152602960248201527f4552433732313a2061646472657373207a65726f206973206e6f7420612076616044820152683634b21037bbb732b960b91b6064820152608401610aed565b506001600160a01b031660009081526003602052604090205490565b610f46611d74565b610f506000611e20565b565b610f5a611d74565b600f55565b6000600c8281548110610f7457610f74612c47565b6000918252602090912001546001600160a01b031692915050565b818161100682828080602002602001604051908101604052809392919081815260200183836020028082843760009201919091525050600f546040516bffffffffffffffffffffffff193360601b166020820152909250603401905060405160208183030381529060405280519060200120611e72565b15156001146110275760405162461bcd60e51b8152600401610aed90612c5d565b3332146110465760405162461bcd60e51b8152600401610aed90612c5d565b336001600160a01b0387161461108c5760405162461bcd60e51b815260206004820152600b60248201526a139bdd08185b1b1bddd95960aa1b6044820152606401610aed565b60155462010000900460ff166110d55760405162461bcd60e51b815260206004820152600e60248201526d283932b9b0b6329034b99027a32360911b6044820152606401610aed565b60155460ff161561111d5760405162461bcd60e51b815260206004820152601260248201527110dbdb9d1c9858dd081a5cc81c185d5cd95960721b6044820152606401610aed565b60165485111561116f5760405162461bcd60e51b815260206004820152601d60248201527f596f752063616e2774206d696e7420736f206d616e7920746f6b656e730000006044820152606401610aed565b6016543360009081526017602052604090205461118d908790612be1565b11156111db5760405162461bcd60e51b815260206004820152601d60248201527f596f752063616e2774206d696e7420736f206d616e7920746f6b656e730000006044820152606401610aed565b60006111e660195490565b6011549091506111f68783612be1565b111561123d5760405162461bcd60e51b815260206004820152601660248201527513585e081cdd5c1c1b1e481a5cc8195e18d95959195960521b6044820152606401610aed565b348660185461124c9190612c89565b11156112965760405162461bcd60e51b8152602060048201526019602482015278139bdd08195b9bdd59da08195d1a195c881c1c9bdd9a591959603a1b6044820152606401610aed565b33600090815260176020526040812080548892906112b5908490612be1565b90915550600090505b868110156112e0576112ce611e88565b806112d881612ca8565b9150506112be565b5050505050505050565b60606001805461094090612aff565b610e47338383611f0d565b60008061131060095490565b61131a9047612be1565b90506113458382611340866001600160a01b03166000908152600b602052604090205490565b611fdc565b9392505050565b611354611d74565b6015805461ff001916610100179055565b3332146113845760405162461bcd60e51b8152600401610aed90612c5d565b6015546301000000900460ff166113d15760405162461bcd60e51b8152602060048201526011602482015270283ab13634b1a9b0b6329034b99027a32360791b6044820152606401610aed565b60155460ff16156114195760405162461bcd60e51b815260206004820152601260248201527110dbdb9d1c9858dd081a5cc81c185d5cd95960721b6044820152606401610aed565b600081116114575760405162461bcd60e51b815260206004820152600b60248201526a16995c9bc8185b5bdd5b9d60aa1b6044820152606401610aed565b600061146260195490565b6011549091506114728383612be1565b11156114b95760405162461bcd60e51b815260206004820152601660248201527513585e081cdd5c1c1b1e481a5cc8195e18d95959195960521b6044820152606401610aed565b34826018546114c89190612c89565b11156115125760405162461bcd60e51b8152602060048201526019602482015278139bdd08195b9bdd59da08195d1a195c881c1c9bdd9a591959603a1b6044820152606401610aed565b60005b82811015610b8e57611525611e88565b8061152f81612ca8565b915050611515565b6115413383611b7a565b61155d5760405162461bcd60e51b8152600401610aed90612bf9565b6115698484848461201a565b50505050565b6001600160a01b0382166000908152600d602052604081205481906040516370a0823160e01b81523060048201526001600160a01b038616906370a082319060240160206040518083038186803b1580156115c957600080fd5b505afa1580156115dd573d6000803e3d6000fd5b505050506040513d601f19601f820116820180604052508101906116019190612cc3565b61160b9190612be1565b6001600160a01b038086166000908152600e60209081526040808320938816835292905220549091506116419084908390611fdc565b949350505050565b611651611d74565b6015805460ff19811660ff90911615179055565b601480546109f790612aff565b6000818152600260205260409020546060906001600160a01b03166116f15760405162461bcd60e51b815260206004820152602f60248201527f4552433732314d657461646174613a2055524920717565727920666f72206e6f60448201526e3732bc34b9ba32b73a103a37b5b2b760891b6064820152608401610aed565b601554610100900460ff16611792576013805461170d90612aff565b80601f016020809104026020016040519081016040528092919081815260200182805461173990612aff565b80156117865780601f1061175b57610100808354040283529160200191611786565b820191906000526020600020905b81548152906001019060200180831161176957829003601f168201915b50505050509050919050565b600061179c61204d565b905060008151116117bc5760405180602001604052806000815250611345565b806117c68461205c565b60146040516020016117da93929190612cdc565b6040516020818303038152906040529392505050565b6117f8611d74565b8051610e479060149060208401906126ba565b611813611d74565b6015805463ff00000019811663010000009182900460ff1615909102179055565b60105460405163c455279160e01b81526001600160a01b03848116600483015260009281169190841690829063c45527919060240160206040518083038186803b15801561188157600080fd5b505afa158015611895573d6000803e3d6000fd5b505050506040513d601f19601f820116820180604052508101906118b99190612da0565b6001600160a01b031614156118d257600191505061092b565b6001600160a01b0380851660009081526005602090815260408083209387168352929052205460ff16611641565b611908611d74565b8051610e479060139060208401906126ba565b611923611d74565b6001600160a01b0381166119885760405162461bcd60e51b815260206004820152602660248201527f4f776e61626c653a206e6577206f776e657220697320746865207a65726f206160448201526564647265737360d01b6064820152608401610aed565b61199181611e20565b50565b6000818152600260205260409020546001600160a01b03166119915760405162461bcd60e51b8152602060048201526018602482015277115490cdcc8c4e881a5b9d985b1a59081d1bdad95b88125160421b6044820152606401610aed565b600081815260046020526040902080546001600160a01b0319166001600160a01b0384169081179091558190611a2882610e4b565b6001600160a01b03167f8c5be1e5ebec7d5bd14f71427d1e84f3dd0314c0f7b2291e5b200ac8c7c3b92560405160405180910390a45050565b80471015611ab15760405162461bcd60e51b815260206004820152601d60248201527f416464726573733a20696e73756666696369656e742062616c616e63650000006044820152606401610aed565b6000826001600160a01b03168260405160006040518083038185875af1925050503d8060008114611afe576040519150601f19603f3d011682016040523d82523d6000602084013e611b03565b606091505b5050905080610b8e5760405162461bcd60e51b815260206004820152603a60248201527f416464726573733a20756e61626c6520746f2073656e642076616c75652c207260448201527f6563697069656e74206d617920686176652072657665727465640000000000006064820152608401610aed565b600080611b8683610e4b565b9050806001600160a01b0316846001600160a01b03161480611bad5750611bad8185611834565b806116415750836001600160a01b0316611bc6846109c3565b6001600160a01b031614949350505050565b826001600160a01b0316611beb82610e4b565b6001600160a01b031614611c4f5760405162461bcd60e51b815260206004820152602560248201527f4552433732313a207472616e736665722066726f6d20696e636f72726563742060448201526437bbb732b960d91b6064820152608401610aed565b6001600160a01b038216611cb15760405162461bcd60e51b8152602060048201526024808201527f4552433732313a207472616e7366657220746f20746865207a65726f206164646044820152637265737360e01b6064820152608401610aed565b611cbc6000826119f3565b6001600160a01b0383166000908152600360205260408120805460019290611ce5908490612dbd565b90915550506001600160a01b0382166000908152600360205260408120805460019290611d13908490612be1565b909155505060008181526002602052604080822080546001600160a01b0319166001600160a01b0386811691821790925591518493918716917fddf252ad1be2c89b69c2b068fc378daa952ba7f163c4a11628f55a4df523b3ef91a4505050565b6006546001600160a01b03163314610f505760405162461bcd60e51b815260206004820181905260248201527f4f776e61626c653a2063616c6c6572206973206e6f7420746865206f776e65726044820152606401610aed565b604080516001600160a01b038416602482015260448082018490528251808303909101815260649091019091526020810180516001600160e01b031663a9059cbb60e01b179052610b8e90849061215a565b600680546001600160a01b038381166001600160a01b0319831681179093556040519116919082907f8be0079c531659141344cd1fd0a4f28419497f9722a3daafe3b4186f6b6457e090600090a35050565b600082611e7f858461222c565b14949350505050565b60026007541415611edb5760405162461bcd60e51b815260206004820152601f60248201527f5265656e7472616e637947756172643a207265656e7472616e742063616c6c006044820152606401610aed565b6002600755611eee601980546001019055565b6000611ef960195490565b9050611f053382612279565b506001600755565b816001600160a01b0316836001600160a01b03161415611f6f5760405162461bcd60e51b815260206004820152601960248201527f4552433732313a20617070726f766520746f2063616c6c6572000000000000006044820152606401610aed565b6001600160a01b03838116600081815260056020908152604080832094871680845294825291829020805460ff191686151590811790915591519182527f17307eab39ab6107e8899845ad3d59bd9653f200f220920489ca2b5937696c31910160405180910390a3505050565b6008546001600160a01b0384166000908152600a6020526040812054909183916120069086612c89565b6120109190612dea565b6116419190612dbd565b612025848484611bd8565b61203184848484612293565b6115695760405162461bcd60e51b8152600401610aed90612dfe565b60606012805461094090612aff565b6060816120805750506040805180820190915260018152600360fc1b602082015290565b8160005b81156120aa578061209481612ca8565b91506120a39050600a83612dea565b9150612084565b60008167ffffffffffffffff8111156120c5576120c56128e2565b6040519080825280601f01601f1916602001820160405280156120ef576020820181803683370190505b5090505b841561164157612104600183612dbd565b9150612111600a86612e50565b61211c906030612be1565b60f81b81838151811061213157612131612c47565b60200101906001600160f81b031916908160001a905350612153600a86612dea565b94506120f3565b60006121af826040518060400160405280602081526020017f5361666545524332303a206c6f772d6c6576656c2063616c6c206661696c6564815250856001600160a01b03166123a09092919063ffffffff16565b805190915015610b8e57808060200190518101906121cd9190612e64565b610b8e5760405162461bcd60e51b815260206004820152602a60248201527f5361666545524332303a204552433230206f7065726174696f6e20646964206e6044820152691bdd081cdd58d8d9595960b21b6064820152608401610aed565b600081815b84518110156122715761225d8286838151811061225057612250612c47565b60200260200101516123af565b91508061226981612ca8565b915050612231565b509392505050565b610e478282604051806020016040528060008152506123db565b60006001600160a01b0384163b1561239557604051630a85bd0160e11b81526001600160a01b0385169063150b7a02906122d7903390899088908890600401612e81565b602060405180830381600087803b1580156122f157600080fd5b505af1925050508015612321575060408051601f3d908101601f1916820190925261231e91810190612ebe565b60015b61237b573d80801561234f576040519150601f19603f3d011682016040523d82523d6000602084013e612354565b606091505b5080516123735760405162461bcd60e51b8152600401610aed90612dfe565b805181602001fd5b6001600160e01b031916630a85bd0160e11b149050611641565b506001949350505050565b6060611641848460008561240e565b60008183106123cb576000828152602084905260409020611345565b5060009182526020526040902090565b6123e5838361253f565b6123f26000848484612293565b610b8e5760405162461bcd60e51b8152600401610aed90612dfe565b60608247101561246f5760405162461bcd60e51b815260206004820152602660248201527f416464726573733a20696e73756666696369656e742062616c616e636520666f6044820152651c8818d85b1b60d21b6064820152608401610aed565b6001600160a01b0385163b6124c65760405162461bcd60e51b815260206004820152601d60248201527f416464726573733a2063616c6c20746f206e6f6e2d636f6e74726163740000006044820152606401610aed565b600080866001600160a01b031685876040516124e29190612edb565b60006040518083038185875af1925050503d806000811461251f576040519150601f19603f3d011682016040523d82523d6000602084013e612524565b606091505b5091509150612534828286612681565b979650505050505050565b6001600160a01b0382166125955760405162461bcd60e51b815260206004820181905260248201527f4552433732313a206d696e7420746f20746865207a65726f20616464726573736044820152606401610aed565b6000818152600260205260409020546001600160a01b0316156125fa5760405162461bcd60e51b815260206004820152601c60248201527f4552433732313a20746f6b656e20616c7265616479206d696e746564000000006044820152606401610aed565b6001600160a01b0382166000908152600360205260408120805460019290612623908490612be1565b909155505060008181526002602052604080822080546001600160a01b0319166001600160a01b03861690811790915590518392907fddf252ad1be2c89b69c2b068fc378daa952ba7f163c4a11628f55a4df523b3ef908290a45050565b60608315612690575081611345565b8251156126a05782518084602001fd5b8160405162461bcd60e51b8152600401610aed91906127de565b8280546126c690612aff565b90600052602060002090601f0160209004810192826126e8576000855561272e565b82601f1061270157805160ff191683800117855561272e565b8280016001018555821561272e579182015b8281111561272e578251825591602001919060010190612713565b5061273a92915061273e565b5090565b5b8082111561273a576000815560010161273f565b6001600160e01b03198116811461199157600080fd5b60006020828403121561277b57600080fd5b813561134581612753565b60005b838110156127a1578181015183820152602001612789565b838111156115695750506000910152565b600081518084526127ca816020860160208601612786565b601f01601f19169290920160200192915050565b60208152600061134560208301846127b2565b60006020828403121561280357600080fd5b5035919050565b6001600160a01b038116811461199157600080fd5b6000806040838503121561283257600080fd5b823561283d8161280a565b946020939093013593505050565b60006020828403121561285d57600080fd5b81356113458161280a565b60008060006060848603121561287d57600080fd5b83356128888161280a565b925060208401356128988161280a565b929592945050506040919091013590565b600080604083850312156128bc57600080fd5b82356128c78161280a565b915060208301356128d78161280a565b809150509250929050565b634e487b7160e01b600052604160045260246000fd5b600067ffffffffffffffff80841115612913576129136128e2565b604051601f8501601f19908116603f0116810190828211818310171561293b5761293b6128e2565b8160405280935085815286868601111561295457600080fd5b858560208301376000602087830101525050509392505050565b60006020828403121561298057600080fd5b813567ffffffffffffffff81111561299757600080fd5b8201601f810184136129a857600080fd5b611641848235602084016128f8565b600080600080606085870312156129cd57600080fd5b84356129d88161280a565b935060208501359250604085013567ffffffffffffffff808211156129fc57600080fd5b818701915087601f830112612a1057600080fd5b813581811115612a1f57600080fd5b8860208260051b8501011115612a3457600080fd5b95989497505060200194505050565b801515811461199157600080fd5b60008060408385031215612a6457600080fd5b8235612a6f8161280a565b915060208301356128d781612a43565b60008060008060808587031215612a9557600080fd5b8435612aa08161280a565b93506020850135612ab08161280a565b925060408501359150606085013567ffffffffffffffff811115612ad357600080fd5b8501601f81018713612ae457600080fd5b612af3878235602084016128f8565b91505092959194509250565b600181811c90821680612b1357607f821691505b60208210811415612b3457634e487b7160e01b600052602260045260246000fd5b50919050565b60208082526026908201527f5061796d656e7453706c69747465723a206163636f756e7420686173206e6f2060408201526573686172657360d01b606082015260800190565b6020808252602b908201527f5061796d656e7453706c69747465723a206163636f756e74206973206e6f742060408201526a191d59481c185e5b595b9d60aa1b606082015260800190565b634e487b7160e01b600052601160045260246000fd5b60008219821115612bf457612bf4612bcb565b500190565b6020808252602e908201527f4552433732313a2063616c6c6572206973206e6f7420746f6b656e206f776e6560408201526d1c881b9bdc88185c1c1c9bdd995960921b606082015260800190565b634e487b7160e01b600052603260045260246000fd5b6020808252601290820152712737ba1030b63637bbb2b21037b934b3b4b760711b604082015260600190565b6000816000190483118215151615612ca357612ca3612bcb565b500290565b6000600019821415612cbc57612cbc612bcb565b5060010190565b600060208284031215612cd557600080fd5b5051919050565b600084516020612cef8285838a01612786565b855191840191612d028184848a01612786565b8554920191600090600181811c9080831680612d1f57607f831692505b858310811415612d3d57634e487b7160e01b85526022600452602485fd5b808015612d515760018114612d6257612d8f565b60ff19851688528388019550612d8f565b60008b81526020902060005b85811015612d875781548a820152908401908801612d6e565b505083880195505b50939b9a5050505050505050505050565b600060208284031215612db257600080fd5b81516113458161280a565b600082821015612dcf57612dcf612bcb565b500390565b634e487b7160e01b600052601260045260246000fd5b600082612df957612df9612dd4565b500490565b60208082526032908201527f4552433732313a207472616e7366657220746f206e6f6e20455243373231526560408201527131b2b4bb32b91034b6b83632b6b2b73a32b960711b606082015260800190565b600082612e5f57612e5f612dd4565b500690565b600060208284031215612e7657600080fd5b815161134581612a43565b6001600160a01b0385811682528416602082015260408101839052608060608201819052600090612eb4908301846127b2565b9695505050505050565b600060208284031215612ed057600080fd5b815161134581612753565b60008251612eed818460208701612786565b919091019291505056fea2646970667358221220a84235c4259915fbdaa12ec05100fa0f8aacf35585436c28378f91c33958663764736f6c63430008090033697066733a2f2f516d6574793844744348425a487a54316148725135646979673853703742766a7979375358476f676f56746a695a2f68696464656e2e6a736f6e",
  "linkReferences": {},
  "deployedLinkReferences": {}
}